:040000008A15BF2876
:10000800FF00030E8301C3000A08C2008A017008BA
:10001800A200F0010B1D12280130F000700803192E
:100028001B280B11EE3081008B16FF30DB002208F5
:10003800F00042088A00430E8300FF0E7F0E09007D
:10004800FB09FA09F909F809F80A0319F90A031961
:08005800FA0A0319FB0A080073
:0E006000F201F101F001F801F3010030080097
:10006E00710DF80DF90D7408F8027508031C750F63
:10007E00F902F00DF10D0F30FC00710DF80DF90DB8
:10008E007408701C5028F8027508031C750FF902CD
:10009E005528F80775080318750FF907F00DF10DBF
:1000AE00FC0B4428701861287408F80775080318AB
:0800BE00750FF90700000800AE
:1000C6007408F8027508031C750FF9027608031CFC
:1000D600760FFA027708031C770FFB02F30D073041
:1000E600FC00730DF80DF90DFA0DFB0D7408731C69
:1000F6008A28F8027508031C750FF9027608031C96
:10010600760FFA027708031C770FFB029728F80789
:1001160075080318750FF90776080318760FFA079E
:1001260077080318770FFB07F30DFC0B7428720D85
:10013600F80DF90DFA0DFB0D7408731CB028F802C2
:100146007508031C750FF9027608031C760FFA0270
:100156007708031C770FFB02BD28F80775080318FC
:10016600750FF90776080318760FFA07770803184C
:10017600770FFB07F20D0730FC00720DF80DF90D35
:10018600FA0DFB0D7408721CD628F8027508031CBC
:10019600750FF9027608031C760FFA027708031C1E
:1001A600770FFB02E328F80775080318750FF907A0
:1001B60076080318760FFA0777080318770FFB07F8
:1001C600F20DFC0BC028710DF80DF90DFA0DFB0DA3
:1001D6007408721CFC28F8027508031C750FF902D6
:1001E6007608031C760FFA027708031C770FFB02CA
:1001F6000929F80775080318750FF9077608031813
:10020600760FFA0777080318770FFB07F10D07300B
:10021600FC00710DF80DF90DFA0DFB0D7408711C3B
:100226002229F8027508031C750FF9027608031CCB
:10023600760FFA027708031C770FFB022F29F807BF
:1002460075080318750FF90776080318760FFA076D
:1002560077080318770FFB07F10DFC0B0C29700DBF
:10026600F80DF90DFA0DFB0D7408711C4829F802FA
:100276007508031C750FF9027608031C760FFA023F
:100286007708031C770FFB025529F8077508031832
:10029600750FF90776080318760FFA07770803181B
:1002A600770FFB07F00D0730FC00700DF80DF90D08
:1002B600FA0DFB0D7408701C6E29F8027508031CF4
:1002C600750FF9027608031C760FFA027708031CED
:1002D600770FFB027B29F80775080318750FF907D6
:1002E60076080318760FFA0777080318770FFB07C7
:1002F600F00DFC0B582970188E297408F80775083C
:100306000318750FF90776080318760FFA077708AA
:080316000318770FFB07080034
:10031E007B15FB1F99290130F300F201F101F00169
:08032E00FA0DF20CFF3008008B
:08033600FA1FF2130030080069
:10033E00FB14FB1FA929FF30F300F200F100F000BF
:08034E00FA0DF20CFF3008006B
:06035600FB15FF3008005A
:10035C00A1017208031DC3297108F2007008F10095
:10036C00F001A1157208031DC3297108F200F101F7
:10037C00A111211672080319D1292108F302031DBA
:10038C00031CD5290310F21BD929F00DF10DF20D28
:10039C00F30BC929D5290130FC003020DC290230AF
:0E03AC00FC008F21DC290430FC009B2108009E
:1003BA00831203132230FC00F801F901FA01FB0150
:1003CA00FC030319132A0310FB0CFA0CF90CF80CA2
:1003DA00F30CF20CF10CF00C031CE529FC030319D5
:1003EA00052A7408F80775080318750FF9077608BF
:1003FA000318760FFA0777080318770FFB07E9291E
:10040A007408F80775080318750FF90776080318B2
:0E041A00760FFA0777080318770FFB07080024
:10042800831203131A08F200981C1C2A18121816B3
:0A0438007208F1007108F0000800DE
:10044200831603139818272A0000212A83126A08A8
:040452009900080005
:100456008316031398169030831298008316871715
:10046600071383128C1E3A2A1A08F000342A080051
:100476007C18712AFC18422A7C19902A3B2AA10171
:100486007208031D622A7108F2007008F1007808EC
:10049600F000F801A1157208031D622A7108F20026
:1004A6007008F100F001A11121167208031D622ADD
:1004B6007108F200F101A11572080319842A2108B6
:1004C600F302031D031C882A0310F21B712AF80D80
:1004D600F00DF10DF20DF30B682A882A7B1B701CB8
:1004E6008C2AF81F8C2AF00A0319F10A0319F20A5A
:1004F600031D8C2AF20CF10CF00CF30A0319902A56
:100506008C2A0130FC003020932A0230FC008F2117
:10051600932A0430FC009B21932A0830FC009F217B
:0405260000000800C9
:10052A00831203137408003A031DA42A7508003ABB
:10053A00031DA42AFF30F0007F30F100FD2A831248
:10054A000313FD01F901F80171087004031900345D
:10055A0071087506FA00FA1BFD09FB01F51FBA2A94
:10056A00F409F509F40A0319F50AF11FC12AF00979
:10057A00F109F00A0319F10A71087504FA00FA1B65
:10058A00D62A37207B18E92AFD1F0034F009F10921
:10059A00F00A0319F10AF809F909F80A0319F90A1C
:1005AA000034F51FE52AF11BE12A7108F9007008E9
:1005BA00F800F101F001C92AF101F001F00A003452
:1005CA00F109F009FB0AC62AF80A0319F90A74089C
:1005DA007802031DC92A75087902031DC92AF9017F
:1005EA00F801F00A0319F10AF11FC92A0000FF34C1
:0205FA000800F7
:1005FC00831203137408003A031D192B7508003A73
:10060C00031D192B7608003A031D192B7708003AA5
:10061C00031D192BFF30F000FF30F100FF30F2000A
:10062C007F30F300B22B83120313FC01F71BFC0A7F
:10063C00FD01FB01FA01F901F80173087204710460
:10064C0070040319AD2B73087706A000A01BFD09DD
:10065C00F71F3B2BF409F509F609F709F40A0319FE
:10066C00F50A0319F60A0319F70AF31F482BF009C8
:10067C00F109F209F309F00A0319F10A0319F20A54
:10068C000319F30A73087704A000A01B692B6320DD
:10069C00FC1B862BFD1FAD2BF009F109F209F309A8
:1006AC00F00A0319F10A0319F20A0319F30AF809FB
:1006BC00F909FA09FB09F80A0319F90A0319FA0AE4
:1006CC000319FB0AAD2BF71F802BF31B7A2B730836
:1006DC00FB007208FA007108F9007008F800F301C9
:1006EC00F201F101F001502BF301F201F101F001E3
:1006FC00F00A0034F309F209F109F009FC174D2B4B
:10070C00F80A0319F90A0319FA0A0319FB0A7408FF
:10071C007802031D502B75087902031D502B7608A7
:10072C007A02031D502B77087B02031D502BFB0113
:10073C00FA01F901F801F00A0319F10A0319F20A96
:10074C000319F30AF31F502BA0012016FF34A0014C
:0A075C007C1CB12B2420003E080095
:1007660083120313F801F9011030FC00710DF80D26
:10077600F90D7408F8027508031C750FF9020318C1
:10078600CB2B7408F80775080318750FF9070310C3
:0A079600F00DF10DFC0BB92B08006B
:1007A0007B14FB1FDB2BF201FA1FFF30F200F1007C
:0A07B000F000FA0DF20CFF30080013
:1007BA000030831203138C1A0130F1007108F00023
:0207CA00080025
:1007CC0083120313FB0173080319232C7208FA001C
:1007DC00F2178E30F302F31F262CF309F30A0830BC
:1007EC007302031C092CF300F10D7208F100F201E5
:1007FC0008307302031C092CF300F10DF10173088E
:10080C00031D0310112C73080319112C0310F20C87
:10081C00F10CF30B0C2C7B1B711C1B2C031C1B2CC9
:10082C00F10A0319F20AF21B322CFA1F352CF209C9
:10083C00F109F10A0319F20A352CF201F101352CF8
:10084C007B14FB1F382CF201FA1F382CFF30F200FE
:10085C00F100FA0DF20C382C0130FC003A2C00306F
:10086C00FC003A2CFF30FC00FC0803193E2CD02372
:0A087C007108F0007208F100080096
:10088600831203137008F100F0010830FC007108B0
:10089600F40C0318522CFC0B4B2CF1010034031002
:1008A600572CF40C0318F107F10CF00CFC0B542C2C
:0208B600080038
:1008B80083120313FB017308031D77080319B32C74
:1008C80072087606FA007708F3077E30031C702C4E
:1008D800F3020318B62C732CF302031CB92C72080C
:1008E800F8007108FC007008FD00F817F6170310EF
:1008F800F201F101F0011830A1007D1C8D2C740863
:10090800F00775080318750FF10776080318760FB6
:10091800F207F20CF10CF00CF80CFC0CFD0C0310B7
:10092800A10B812CF21B9D2CF80DF00DF10DF20D91
:10093800F3037B1B701CAF2CF81FAF2CF00A0319B4
:10094800F10A0319F20A031DAF2CF20CF10CF00C9A
:10095800F30A0319B62CFA1FF2130030BB2C01302E
:100968003020BB2C02309F21BB2C04308F2100008B
:02097800080075
:10097A00831203135E08803A031DC52C00305D06FE
:10098A00031DDE2C5F0884002D308000840A33307A
:10099A008000840A32308000840A37308000840A5A
:1009AA0036308000840A38308000840A8001840A44
:1009BA003C2DE10180305E06F00080307002031D9C
:1009CA00E82C00305D020318F42CFF30E1005D08CA
:1009DA00003CDD005E08031C013EDE01DE025F080A
:1009EA00840020308000840A20308000840A20306D
:1009FA008000840A20308000840A20308000840A23
:100A0A0030308000840A8001840A05305F07E000E4
:100A1A0000305E06031D132D00305D060319352DC7
:100A2A000A30F400F5015D08F0005E08F100952235
:100A3A007808F0007908F1003030F0076008840087
:100A4A00700880000A30F400F5015D08F0005E08C5
:100A5A00F10095227008DD007108DE00E0030D2D1B
:100A6A00610803193C2D600884002D3080000800BD
:100A7A00831203137008F8007108F0007208F1007D
:100A8A007308F200F301FB01FC019E30F300FA0146
:080A9A000230FC003B220800C1
:100AA200831203135F08840020308000840A203000
:100AB2008000840A20308000840A20308000840A6A
:100AC20030308000840A8001840A04305F07E0002D
:100AD20000305E06031D6F2D00305D060319912D57
:100AE2000A30F400F5015D08F0005E08F100B3235E
:100AF2007808F0007908F1003030F00760088400CF
:100B0200700880000A30F400F5015D08F0005E080C
:100B1200F100B3237008DD007108DE00E003692DE7
:020B22000800C9
:100B240083120313DE01DF011030E2002730E300FB
:100B3400E401E501E601E701E001E10160085D0788
:100B440084000008003A0319E12D60085D07840061
:100B54000008203A0319D12D60085D078400303065
:100B64000002F0000030031C013EF101F1020030EC
:100B7400F200F3006208F4006308F500F601F701DF
:100B8400DD217008E40771080318710FE507720886
:100B94000318720FE60773080318730FE7070A3088
:100BA400F400F5016208F0006308F100B323700853
:100BB400E2007108E300E00A0319E10AA02D003005
:100BC4006106031DE72D053060060319032E0A3064
:100BD400F400F501F601F7016408F0006508F1007E
:100BE4006608F2006708F300FE227008E40071084A
:100BF400E5007208E6007308E700E00A0319E10A59
:100C0400E12D6408DE006508DF005E08F0005F087F
:040C1400F1000800E3
:100C180083120313FB01FA01F9018030F800F10C8B
:100C2800F00C031C202E7408F90775080318750FBB
:100C3800FA070318FB0A0310F01F282E7408FA0796
:100C480075080318750FFB07FB0CFA0CF90CF80C68
:100C5800031C132E7B08F3007A08F2007908F100D0
:060C68007808F00008000E
:100C6E0083120313DE015D0884000008DF005F08B5
:100C7E00003A03194C2E5F08EA002122DE0A5E08B4
:0C0C8E005D0784000008DF003E2E080017
:100C9A00040883120313F000710884000008031982
:100CAA00622EF200040AF1007008840072088000C3
:100CBA00040AF00071088400532E700884000800AA
:100CCA0083120313DE01DF011030E2002730E30054
:100CDA00E001E101E601E701E801E901E401E501DA
:100CEA0060085D0784000008003A0319C42E6008F2
:100CFA005D07840000082D3A031D8A2EFF30E400A8
:100D0A00E501E00A0319E10A752E60085D0784000F
:100D1A000008203A0319B42E60085D0784003030B9
:100D2A000002F0000030031C013EF101F102003024
:100D3A00F200F3006208F4006308F500F601F70117
:100D4A00DD217008E60771080318710FE7077208BA
:100D5A000318720FE80773080318730FE9070A30BC
:100D6A00F400F5016208F0006308F100B32370088B
:100D7A00E2007108E300E00A0319E10A752E64082B
:100D8A0065040319CC2E0630E200E301CF2E0530AC
:100D9A00E200E30161086306031DD52E62086006BE
:100DAA000319F12E0A30F400F501F601F70166087D
:100DBA00F0006708F1006808F2006908F300FE22F3
:100DCA007008E6007108E7007208E8007308E90095
:100DDA00E00A0319E10ACF2E6608DE006708DF0081
:100DEA0000306506031DFB2EFF306406031D052F28
:100DFA005E08003CDE005F08031C013EDF01DF02E3
:0A0E0A005E08F0005F08F100080028
:100E1400831203138501063083169F00CF308500AB
:100E2400803087008312871207160C300505F20004
:100E34007208F100F10CF113F10CF1137108C10007
:100E44007108003A031D2C2F77308316990018156A
:100E54002B224A2F4108013A031D362F3B308316BB
:100E6400990018152B224A2F4108023A031D402FDE
:100E740013308316990018152B224A2F4108033A80
:100E8400031D4A2F09308316990018152B224A2F67
:100E9400073083168100EE30831281008B160B110C
:060EA4008B17DB010800C2
:100EAA00831203137008F8007108F000F101F201CF
:100EBA00F301FB01FC019630F300FA01F01F6B2FDE
:100ECA00F809F009F80A0319F00AFA177008F1008C
:0C0EDA007808F000F801F201AE210800D9
:100EE600831203135D08E2005E08E300E0015F0879
:100EF600003A0319B62F5F08FF3A0319832FDF0361
:100F0600DD237008003A031D8A2F0000832F142268
:100F16007008E1006208840070088000E20A630835
:100F2600840000086106031D9B2FE00AE30AA62F32
:100F3600E0015E08E3005E08840000086106031D08
:100F4600A62FE00AE30A630884000008003A031D9E
:100F5600B52F60086202F0007008E2007008840095
:0E0F66008001B92F7A2F5D08840080010800F9
:100F7400DD237008013A031DD42F14227008DD000C
:100F840061305D02FF30031C0030F1007B305D02F4
:100F9400FF3003180030F0007108F0050319D42F56
:0A0FA4002030DD025D08F0000800B7
:10100000831203137408003A031D1B287508003A65
:10101000031D1B287608003A031D1B287708003A99
:10102000031D1B28FF30F000FF30F1007F30F2007D
:10103000FF30F300BE288312031377080319AA2890
:1010400073080319AF28720876068039FA00F21780
:10105000F617A1017208F8007108FC007008FD0085
:101060007408FD027508031C750FFC027608031C4A
:10107000760FF802F801FC01FD01031C462803105D
:10108000F20CF10CF00CF80C0130A1007708F3021F
:10109000031C50287E302107F3070318B428552875
:1010A0007E302107F307031CB9281830FA07FD0D1D
:1010B000FC0DF80DF00DF10DF20DA10D7408F0020C
:1010C0007508031C750FF1027608031C760FF202F7
:1010D000760DA104211C6E287D1479287408F00770
:1010E00075080318750FF10776080318760AF207DA
:1010F0007D10FA031F307A05031D57287B1B7D1CCA
:10110000A0280310F00DF10DF20DA10D7408F002EE
:101110007508031C750FF1027608031C760FF202A6
:10112000760D21040139FD070318FC0A0319F80A9A
:10113000031DA028F80CFC0CFD0CF30A0319B428BD
:10114000FA1FF8137808F2007C08F1007D08F0001F
:101150000030BD2801308A11AB218A15BD2802302C
:101160008A1130208A15BD2804308A119F218A15E2
:0E117000BD2808308A118F218A150000080062
:10117E008A110A278A1544308316A0004130A10037
:10118E005330A2003130A3003630A4003130A50018
:10119E003230A6002030A7007330A8006530A900B9
:1011AE007230AA006930AB006130AC006C30AD001B
:1011BE002030AE006130AF006330B0007130B1004E
:1011CE007530B2006930B3007330B4006930B500C9
:1011DE007430B6006930B7006F30B8006E30B900A9
:1011EE002030BA007330BB007930BC007330BD00C4
:1011FE007430BE006530BF006D30C0000D30C100D0
:10120E000A30C2000030C300A0308312DD008A1104
:10121E0037268A1543308316A0006630A10067304A
:10122E00A2002030A3007330A4007430A5007230E9
:10123E00A6006930A7006E30A8006730A9003A30CA
:10124E00AA002030AB002430AC006330AD00693012
:10125E00AE002C30AF006330B0006630B1002C30E1
:10126E00B2004230B3005030B4006D30B5002C30B7
:10127E00B6006E30B7007330B8002C30B90066304F
:10128E00BA007330BB002A30BC000D30BD000A30EE
:10129E00BE000030BF00A0308312DD008A11372659
:1012AE008A1542308316A0006130A1007330A2006F
:1012BE006530A3002030A4005030A5006530A60094
:1012CE007230A7006930A8006F30A9006430AA0000
:1012DE002030AB006930AC007330AD002030AE0072
:1012EE003130AF002030B0005B30B1006D30B20055
:1012FE007330B3005D30B4000D30B5000A30B60067
:10130E000030B700A0308312DD008A1137268A150F
:10131E0047308316A0002E30A1004330A20061306A
:10132E00A3007230A4007230A5006530A6007230A2
:10133E00A7006130A8002030A9002D30AA002D3062
:10134E00AB002030AC007230AD006530AE007630B0
:10135E00AF002E30B0002030B1003230B200363047
:10136E00B3002F30B4003030B5003630B6002F3019
:10137E00B7003130B8003630B9000D30BA000A303F
:10138E00BB000030BC00A0308312DD008A1137266E
:10139E008A1557308316A0006130A1006930A20073
:1013AE007430A3006930A4006E30A5006730A6002B
:1013BE002030A7006630A8006F30A9007230AA0056
:1013CE002030AB006330AC006F30AD006E30AE003D
:1013DE006630AF006930B0006730B1007530B200D2
:1013EE007230B3006130B4007430B5006930B600AD
:1013FE006F30B7006E30B8002030B9007330BA00CD
:10140E007430BB007230BC006930BD006E30BE005F
:10141E006730BF002E30C0002E30C1000D30C2002C
:10142E000A30C3000030C400A0308312DD008A11E0
:10143E0037268A158A11BA278A157008243A031D91
:10144E00212ADC015730DD002C308316A000A101CB
:10145E00A0308312DE000330DF008A1173278A1555
:10146E004830DD002C308316A000A101A03083127D
:10147E00DE000330DF008A1173278A154430DD0049
:10148E002C308316A000A101A0308312DE000A309A
:10149E00DF008A1173278A155030DD002C30831639
:1014AE00A000A101A0308312DE000A30DF008A11F5
:1014BE0073278A154C30DD002A308316A000A10157
:1014CE00A0308312DE000330DF008A1173278A15E5
:1014DE005730DD008A1165268A157008C000483025
:1014EE00DD008A1165268A157008B1004430DD00D2
:1014FE008A1165268A157008B0005030DD008A11F9
:10150E0092258A157008B2007108B3004C30DD00C8
:10151E008A1165268A157008B50040080F3CFF3009
:10152E0003180030F10031080F3CFF300318003073
:10153E00F0007008F10440083102FF30031800304B
:10154E00F0007108F0040319AE2AFF30DC003008F9
:10155E00003AFF30031D0030F10000303306031D4A
:10156E00BA2A00303206FF30031D0030F000710839
:10157E00F0040319C42AFF30DC003508053A031DB8
:10158E00CA2A0512D22A35080A3A031DD02A051690
:10159E00D22AFF30DC005C080319242B4530831659
:1015AE00A0007230A1007230A2006F30A300723022
:1015BE00A4007330A5002030A6006F30A7006E3057
:1015CE00A8002030A9006330AA006F30AB006E3047
:1015DE00AC006630AD006930AE006730AF007530DC
:1015EE00B0007230B1006130B2007430B3006930B7
:1015FE00B4006F30B5006E30B6002030B7007330D7
:10160E00B8007430B9007230BA006930BB006E3069
:10161E00BC006730BD002030BE002130BF0021303D
:10162E00C0000D30C1000A30C2000030C300A0302F
:10163E008312DD008A1137268A1540083102F00028
:10164E00F00A0630F4008A1143248A15023070071E
:10165E00B4003008F000F101E830F4000330F5007A
:10166E008A110C268A157008A5007108A60040087C
:10167E003102F0000030031C013EF101F102F00ACC
:10168E000319F10A1930F400F5018A110C268A1596
:10169E007008A3007108A4004108003A031D662BD0
:1016AE001230F0000430F1003408F400F5018A1114
:1016BE000C268A157008A7007108A8009D2B4108FA
:1016CE00013A031D792B0930F0000230F100340885
:1016DE00F400F5018A110C268A157008A70071080E
:1016EE00A8009D2B4108023A031D8B2BAE30F00053
:1016FE00F1013408F400F5018A110C268A157008E0
:10170E00A7007108A8009D2B4108033A031D9D2BCD
:10171E005730F000F1013408F400F5018A110C265F
:10172E008A157008A7007108A8009D2B27082307AB
:10173E00F10024080318013E2807F2007208260261
:10174E00031DAB2B7108250203187F2C5430831612
:10175E00A0007330A1002030A2006930A3007330C6
:10176E00A4002030A5006930A6006E30A7006330BB
:10177E00A8006F30A9006D30AA007030AB00613048
:10178E00AC007430AD006930AE006230AF006C302A
:10179E00B0006530B1002030B2007730B300693050
:1017AE00B4007430B5006830B6002030B700623037
:1017BE00B8006130B9007530BA006430BB0020301B
:1017CE00BC007230BD006130BE007430BF006530A9
:1017DE00C0002030C1002130C2002130C3000D30C6
:1017EE00C4000A30C5000030C600A0308312DD00F0
:1017FE008A1137268A1527082307F00024080318B4
:10180E00013E2807F1007008DD007108DE00293066
:10181E00DF008A1151258A15C830840054308000AB
:10182E00840A73308000840A20308000840A6D3070
:10183E008000840A75308000840A73308000840A28
:10184E0074308000840A20308000840A6230800068
:10185E00840A65308000840A20308000840A673054
:10186E008000840A72308000840A65308000840A09
:10187E0061308000840A74308000840A65308000F4
:10188E00840A72308000840A20308000840A74300A
:10189E008000840A68308000840A61308000840AE7
:1018AE006E308000840A20308000840A2930F100D6
:1018BE008A114D268A1520308000840A5B30800004
:1018CE00840A75308000840A73308000840A5D308B
:1018DE008000840A0D308000840A0A308000840A59
:1018EE008001C830DD008A1137268A15FF30DC00F2
:1018FE005C08003A0319842CD0290D308316A00001
:10190E000A30A1000030A200A0308312DD008A113F
:10191E0037268A15C830840049308000840A6E301C
:10192E008000840A69308000840A74308000840A42
:10193E0069308000840A61308000840A6C30800037
:10194E00840A20308000840A43308000840A683084
:10195E008000840A20308000840A3D308000840A92
:10196E0020308000840A5730F1008A114D268A15E6
:10197E002C308000840A20308000840A463080009B
:10198E00840A69308000840A6E308000840A6130D7
:10199E008000840A6C308000840A20308000840A23
:1019AE0043308000840A68308000840A2030800032
:1019BE00840A3D308000840A20308000840A48303A
:1019CE00F1008A114D268A152C308000840A2030B1
:1019DE008000840A2B308000840A2F308000840A15
:1019EE002D308000840A20308000840A463080002A
:1019FE00840A2E308000840A53308000840A2E30F0
:101A0E008000840A20308000840A5B308000840AC3
:101A1E0056308000840A5D308000840A20308000B9
:101A2E00840A3D308000840A20308000840A4C30C5
:101A3E00F1008A114D268A150D308000840A0A3075
:101A4E008000840A8001C830DD008A1137268A158D
:101A5E00C830840054308000840A73308000840AB9
:101A6E0020308000840A5B308000840A6D30800054
:101A7E00840A73308000840A5D308000840A20302E
:101A8E008000840A3D308000840A20308000840A61
:101A9E004430F1008A114D268A152C308000840ABC
:101AAE0020308000840A53308000840A6130800028
:101ABE00840A6D308000840A70308000840A6C3095
:101ACE008000840A65308000840A73308000840AA6
:101ADE0020308000840A3D308000840A203080004F
:101AEE00840A5030F1008A114D268A150D3080007F
:101AFE00840A0A308000840A8001C830DD008A1111
:101B0E0037268A153508F000F101F201F301E830AD
:101B1E00F4000330F500F601F7018A11DD218A1574
:101B2E008A113D258A150030F400E030F5007F3033
:101B3E00F6008930F70000207008B9007108BA006D
:101B4E007208BB007308BC0050308316A0007530BD
:101B5E00A1007330A2006830A3002030A4005330DF
:101B6E00A5007430A6006130A7007230A800743052
:101B7E00A9002030AA004230AB007530AC007430A2
:101B8E00AD007430AE006F30AF006E30B00020305C
:101B9E00B1006F30B2007230B3002030B400773035
:101BAE00B5007230B6006930B7007430B8006530D9
:101BBE00B9002030BA004130BB002030BC00743078
:101BCE00BD006F30BE002030BF007330C0007430D7
:101BDE00C1006130C2007230C3007430C4000D30D9
:101BEE00C5000A30C6000030C700A0308312DD00E9
:101BFE008A1137268A158A11BA278A157008413A32
:101C0E00FF30031D0030F200F101851C102E013053
:101C1E00F1007108003AFF30031D0030F000720829
:101C2E00F0040319022EBD010D308316A0000A30F8
:101C3E00A1000030A200A0308312DD008A113726E9
:101C4E008A15851644308316A0004130A100543009
:101C5E00A2004130A3000D30A4000A30A5000030D0
:101C6E00A600A0308312DD008A1137268A15BD0129
:101C7E00BE01BF0133083F02031D472E32083E024C
:101C8E000318E32E5B0803194E2EDB01BD0A3D0837
:101C9E003006031DE22EBD014008B4004008B4001A
:101CAE0034083102031CD22EF0300705F000340840
:101CBE00700787000230FD00FD0B632E0000000050
:101CCE0007120716F001051C6E2E0130F000700889
:101CDE000319692EF101051C762E0130F1007108F1
:101CEE00003A031D712E0430F0000608F200F301D5
:101CFE0070080319872EF20DF30D7210FF3E802E21
:101D0E007208B7007308B80087160608F000F00CCA
:101D1E00F013F00CF013F00CF013F00CF01370083D
:101D2E00B60087120030F1007208F0047308F10457
:101D3E000030F002031CF1030830F1027008B70006
:101D4E007108B8008A1155278A153908F4003A0827
:101D5E00F5003B08F6003C08F7008A115C248A1552
:101D6E008A11E6238A157008B7007108B80070084A
:101D7E00DD007108DE002930DF008A11BD248A15CE
:101D8E002930DD008A1137268A15340831060319E9
:101D9E00D22EB40A572E0D308316A0000A30A100A1
:101DAE000030A200A0308312DD008A1137268A157A
:0E1DBE00BE0A0319BF0A412E8512AB2DE52E79
:02400E005A0056
:00000001FF
